{
  "_format": "hh-sol-artifact-1",
  "contractName": "CoinomiconExchange",
  "sourceName": "contracts/CoinomiconExchangeProxy.sol",
  "abi": [
    {
      "inputs": [
        {
          "internalType": "address",
          "name": "_token",
          "type": "address"
        }
      ],
      "stateMutability": "nonpayable",
      "type": "constructor"
    },
    {
      "stateMutability": "payable",
      "type": "fallback"
    },
    {
      "inputs": [
        {
          "internalType": "uint256",
          "name": "",
          "type": "uint256"
        }
      ],
      "name": "orderBook",
      "outputs": [
        {
          "internalType": "address",
          "name": "trader",
          "type": "address"
        },
        {
          "internalType": "uint256",
          "name": "price",
          "type": "uint256"
        },
        {
          "internalType": "uint256",
          "name": "amount",
          "type": "uint256"
        },
        {
          "internalType": "uint256",
          "name": "date",
          "type": "uint256"
        },
        {
          "internalType": "bool",
          "name": "buy",
          "type": "bool"
        },
        {
          "internalType": "bool",
          "name": "active",
          "type": "bool"
        },
        {
          "internalType": "bool",
          "name": "isLimit",
          "type": "bool"
        }
      ],
      "stateMutability": "view",
      "type": "function"
    },
    {
      "inputs": [],
      "name": "token",
      "outputs": [
        {
          "internalType": "address",
          "name": "",
          "type": "address"
        }
      ],
      "stateMutability": "view",
      "type": "function"
    },
    {
      "stateMutability": "payable",
      "type": "receive"
    }
  ],
  "bytecode": "0x608060405234801561001057600080fd5b506040516103da3803806103da83398101604081905261002f9161012c565b6001600160a01b03811661008a5760405162461bcd60e51b815260206004820152601560248201527f496e76616c696420746f6b656e2061646472657373000000000000000000000060448201526064015b60405180910390fd5b333b6100fe5760405162461bcd60e51b815260206004820152603560248201527f436f6e747261637420636f756c64206265206465706c6f796564206f6e6c792060448201527f66726f6d20666163746f727920636f6e747261637400000000000000000000006064820152608401610081565b600080546001600160a01b039092166001600160a01b0319928316179055600180549091163317905561015c565b60006020828403121561013e57600080fd5b81516001600160a01b038116811461015557600080fd5b9392505050565b61026f8061016b6000396000f3fe60806040526004361061002d5760003560e01c8063a20b6e3414610044578063fc0c546a146100ae5761003c565b3661003c5761003a6100e6565b005b61003a6100e6565b34801561005057600080fd5b5061006461005f3660046101f0565b6100f8565b604080516001600160a01b039098168852602088019690965294860193909352606085019190915215156080840152151560a0830152151560c082015260e0015b60405180910390f35b3480156100ba57600080fd5b506000546100ce906001600160a01b031681565b6040516001600160a01b0390911681526020016100a5565b6100f66100f1610159565b6101cc565b565b6002818154811061010857600080fd5b6000918252602090912060059091020180546001820154600283015460038401546004909401546001600160a01b0390931694509092909160ff808216916101008104821691620100009091041687565b6001546040805163532345a560e01b815290516000926001600160a01b03169163532345a59160048083019260209291908290030181865afa1580156101a3573d6000803e3d6000fd5b505050506040513d601f19601f820116820180604052508101906101c79190610209565b905090565b3660008037600080366000845af43d6000803e8080156101eb573d6000f35b3d6000fd5b60006020828403121561020257600080fd5b5035919050565b60006020828403121561021b57600080fd5b81516001600160a01b038116811461023257600080fd5b939250505056fea26469706673582212209708834aa7d79d4d8561d7a8b36a8d4ba8e8c28b9e3958d69637f98dd256dfb264736f6c63430008110033",
  "linkReferences": {},
  "deployedLinkReferences": {}
}