{
  "_format": "hh-sol-artifact-1",
  "contractName": "CoinomiconExchangeImpl",
  "sourceName": "contracts/CoinomiconExchangeImpl.sol",
  "abi": [
    {
      "anonymous": false,
      "inputs": [
        {
          "indexed": false,
          "internalType": "uint256",
          "name": "orderId",
          "type": "uint256"
        },
        {
          "indexed": false,
          "internalType": "address",
          "name": "trader",
          "type": "address"
        },
        {
          "indexed": false,
          "internalType": "uint256",
          "name": "price",
          "type": "uint256"
        },
        {
          "indexed": false,
          "internalType": "bool",
          "name": "buy",
          "type": "bool"
        }
      ],
      "name": "LimitOrderClosed",
      "type": "event"
    },
    {
      "anonymous": false,
      "inputs": [
        {
          "indexed": false,
          "internalType": "uint256",
          "name": "orderId",
          "type": "uint256"
        },
        {
          "indexed": false,
          "internalType": "address",
          "name": "trader",
          "type": "address"
        },
        {
          "indexed": false,
          "internalType": "uint256",
          "name": "amount",
          "type": "uint256"
        },
        {
          "indexed": false,
          "internalType": "uint256",
          "name": "price",
          "type": "uint256"
        },
        {
          "indexed": false,
          "internalType": "bool",
          "name": "buy",
          "type": "bool"
        }
      ],
      "name": "LimitOrderSubmitted",
      "type": "event"
    },
    {
      "anonymous": false,
      "inputs": [
        {
          "indexed": false,
          "internalType": "uint256",
          "name": "orderId",
          "type": "uint256"
        },
        {
          "indexed": false,
          "internalType": "address",
          "name": "trader",
          "type": "address"
        },
        {
          "indexed": false,
          "internalType": "uint256",
          "name": "price",
          "type": "uint256"
        },
        {
          "indexed": false,
          "internalType": "bool",
          "name": "buy",
          "type": "bool"
        }
      ],
      "name": "MarketOrderClosed",
      "type": "event"
    },
    {
      "anonymous": false,
      "inputs": [
        {
          "indexed": false,
          "internalType": "uint256",
          "name": "orderId",
          "type": "uint256"
        },
        {
          "indexed": false,
          "internalType": "address",
          "name": "trader",
          "type": "address"
        },
        {
          "indexed": false,
          "internalType": "uint256",
          "name": "amount",
          "type": "uint256"
        },
        {
          "indexed": false,
          "internalType": "bool",
          "name": "buy",
          "type": "bool"
        }
      ],
      "name": "MarketOrderSubmitted",
      "type": "event"
    },
    {
      "anonymous": false,
      "inputs": [
        {
          "indexed": false,
          "internalType": "uint256",
          "name": "orderId",
          "type": "uint256"
        },
        {
          "indexed": false,
          "internalType": "address",
          "name": "trader",
          "type": "address"
        }
      ],
      "name": "OrderCancelled",
      "type": "event"
    },
    {
      "inputs": [],
      "name": "bestPrice",
      "outputs": [
        {
          "internalType": "uint256",
          "name": "",
          "type": "uint256"
        }
      ],
      "stateMutability": "view",
      "type": "function"
    },
    {
      "inputs": [
        {
          "internalType": "uint256",
          "name": "orderId",
          "type": "uint256"
        }
      ],
      "name": "cancelOrder",
      "outputs": [
        {
          "internalType": "bool",
          "name": "",
          "type": "bool"
        }
      ],
      "stateMutability": "nonpayable",
      "type": "function"
    },
    {
      "inputs": [
        {
          "internalType": "uint256",
          "name": "amount",
          "type": "uint256"
        },
        {
          "internalType": "uint256",
          "name": "price",
          "type": "uint256"
        },
        {
          "internalType": "bool",
          "name": "isLimit",
          "type": "bool"
        },
        {
          "internalType": "bool",
          "name": "buy",
          "type": "bool"
        }
      ],
      "name": "cost",
      "outputs": [
        {
          "internalType": "uint256",
          "name": "available",
          "type": "uint256"
        },
        {
          "internalType": "uint256",
          "name": "totalCost",
          "type": "uint256"
        }
      ],
      "stateMutability": "view",
      "type": "function"
    },
    {
      "inputs": [
        {
          "internalType": "uint256",
          "name": "orderId",
          "type": "uint256"
        }
      ],
      "name": "getOrder",
      "outputs": [
        {
          "components": [
            {
              "internalType": "address",
              "name": "trader",
              "type": "address"
            },
            {
              "internalType": "uint256",
              "name": "price",
              "type": "uint256"
            },
            {
              "internalType": "uint256",
              "name": "amount",
              "type": "uint256"
            },
            {
              "internalType": "uint256",
              "name": "date",
              "type": "uint256"
            },
            {
              "internalType": "bool",
              "name": "buy",
              "type": "bool"
            },
            {
              "internalType": "bool",
              "name": "active",
              "type": "bool"
            },
            {
              "internalType": "bool",
              "name": "isLimit",
              "type": "bool"
            }
          ],
          "internalType": "struct ICoinomiconExchange.Order",
          "name": "",
          "type": "tuple"
        }
      ],
      "stateMutability": "view",
      "type": "function"
    },
    {
      "inputs": [],
      "name": "getOrderCount",
      "outputs": [
        {
          "internalType": "uint256",
          "name": "",
          "type": "uint256"
        }
      ],
      "stateMutability": "view",
      "type": "function"
    },
    {
      "inputs": [
        {
          "internalType": "uint256",
          "name": "",
          "type": "uint256"
        }
      ],
      "name": "orderBook",
      "outputs": [
        {
          "internalType": "address",
          "name": "trader",
          "type": "address"
        },
        {
          "internalType": "uint256",
          "name": "price",
          "type": "uint256"
        },
        {
          "internalType": "uint256",
          "name": "amount",
          "type": "uint256"
        },
        {
          "internalType": "uint256",
          "name": "date",
          "type": "uint256"
        },
        {
          "internalType": "bool",
          "name": "buy",
          "type": "bool"
        },
        {
          "internalType": "bool",
          "name": "active",
          "type": "bool"
        },
        {
          "internalType": "bool",
          "name": "isLimit",
          "type": "bool"
        }
      ],
      "stateMutability": "view",
      "type": "function"
    },
    {
      "inputs": [
        {
          "internalType": "uint256",
          "name": "amount",
          "type": "uint256"
        },
        {
          "internalType": "uint256",
          "name": "price",
          "type": "uint256"
        },
        {
          "internalType": "bool",
          "name": "buy",
          "type": "bool"
        }
      ],
      "name": "submitLimitOrder",
      "outputs": [
        {
          "internalType": "bool",
          "name": "",
          "type": "bool"
        }
      ],
      "stateMutability": "payable",
      "type": "function"
    },
    {
      "inputs": [
        {
          "internalType": "uint256",
          "name": "amount",
          "type": "uint256"
        },
        {
          "internalType": "bool",
          "name": "buy",
          "type": "bool"
        }
      ],
      "name": "submitMarketOrder",
      "outputs": [
        {
          "internalType": "bool",
          "name": "",
          "type": "bool"
        }
      ],
      "stateMutability": "payable",
      "type": "function"
    },
    {
      "inputs": [],
      "name": "token",
      "outputs": [
        {
          "internalType": "address",
          "name": "",
          "type": "address"
        }
      ],
      "stateMutability": "view",
      "type": "function"
    }
  ],
  "bytecode": "0x608060405234801561001057600080fd5b506121d1806100206000396000f3fe6080604052600436106100865760003560e01c8063a20b6e3411610059578063a20b6e3414610127578063d09ef2411461018c578063ddd808411461020c578063f7a612021461021f578063fc0c546a1461023457600080fd5b80631734d04b1461008b578063514fcac7146100c55780638d0a5fbb146100f55780639b299a9514610114575b600080fd5b34801561009757600080fd5b506100ab6100a6366004611ed5565b61026c565b604080519283526020830191909152015b60405180910390f35b3480156100d157600080fd5b506100e56100e0366004611f1f565b610510565b60405190151581526020016100bc565b34801561010157600080fd5b506002545b6040519081526020016100bc565b6100e5610122366004611f38565b610802565b34801561013357600080fd5b50610147610142366004611f1f565b6111d6565b604080516001600160a01b039098168852602088019690965294860193909352606085019190915215156080840152151560a0830152151560c082015260e0016100bc565b34801561019857600080fd5b506101ac6101a7366004611f1f565b611237565b6040516100bc919081516001600160a01b0316815260208083015190820152604080830151908201526060808301519082015260808083015115159082015260a08281015115159082015260c09182015115159181019190915260e00190565b6100e561021a366004611f68565b611301565b34801561022b57600080fd5b50610106611de2565b34801561024057600080fd5b50600054610254906001600160a01b031681565b6040516001600160a01b0390911681526020016100bc565b60008082156103eb5760005b600254811080156102895750600087115b156103e5576000600282815481106102a3576102a3611fa1565b60009182526020918290206040805160e081018252600590930290910180546001600160a01b031683526001810154938301939093526002830154908201526003820154606082015260049091015460ff808216151560808401526101008204811615801560a0850181905262010000909304909116151560c08401529192509061033057508060800151155b156103d1578580156103455750868160200151115b1561035057506103d3565b604081015160208201516000906103679083611e8d565b90508982106103a95761039161038a84602001518c611e8d90919063ffffffff16565b8690611ea0565b945061039d828b611eac565b60009a965091506103ce565b6103b38582611ea0565b94506103bf8a83611eac565b99506103cb8287611fcd565b95505b50505b505b806103dd81611fe0565b915050610278565b50610507565b6000805b600254811080156104005750600088115b156105035760006002828154811061041a5761041a611fa1565b906000526020600020906005020190508060040160019054906101000a900460ff16801561044c5750600481015460ff165b156104ef57878160010154101561046357506104f1565b6002810154600182015460009061047a9083611e8d565b90508a82106104c7576104a461049d84600101548d611e8d90919063ffffffff16565b8790611ea0565b95506104b0858c611ea0565b94506104bc828c611eac565b915060009a506104ec565b6104d18682611ea0565b95506104dd8583611ea0565b94506104e98b83611eac565b9a505b50505b505b806104fb81611fe0565b9150506103ef565b5091505b94509492505050565b6000806002838154811061052657610526611fa1565b6000918252602090912060059091020180549091506001600160a01b031633146105a35760405162461bcd60e51b8152602060048201526024808201527f596f752063616e206f6e6c792063616e63656c20796f7572206f776e206f726460448201526332b9399760e11b60648201526084015b60405180910390fd5b6004810154610100900460ff166105fc5760405162461bcd60e51b815260206004820152601a60248201527f4f7264657220697320616c726561647920696e6163746976652e000000000000604482015260640161059a565b600481015460ff1615610690578054600182015460028301546001600160a01b03909216916108fc9161062f9190611e8d565b6040518115909202916000818181858888f1935050505061068b5760405162461bcd60e51b81526020600482015260166024820152752ab730b13632903a37903932ba3ab9371032ba3432b960511b604482015260640161059a565b61075a565b6000548154600283015460405163a9059cbb60e01b81526001600160a01b039283166004820152602481019190915291169063a9059cbb906044016020604051808303816000875af11580156106ea573d6000803e3d6000fd5b505050506040513d601f19601f8201168201806040525081019061070e9190611ff9565b61075a5760405162461bcd60e51b815260206004820152601760248201527f556e61626c6520746f2072657475726e20746f6b656e73000000000000000000604482015260640161059a565b6002838154811061076d5761076d611fa1565b60009182526020822060059091020180546001600160a01b031916815560018101829055600281018290556003810191909155600401805462ffffff191690556040517fc0362da6f2ff36b382b34aec0814f6b3cdf89f5ef282a1d1f114d0c0b036d596906107f190859033909182526001600160a01b0316602082015260400190565b60405180910390a150600192915050565b60008083116108535760405162461bcd60e51b815260206004820181905260248201527f416d6f756e74206d7573742062652067726561746572207468616e207a65726f604482015260640161059a565b60026040518060e00160405280336001600160a01b03168152602001610877611de2565b815260208082018790524260408084019190915286151560608085019190915260016080808601829052600060a096870181905288548084018a55988152859020875160059099020180546001600160a01b0319166001600160a01b0390991698909817885593860151878201559185015160028088019190915590850151600387015591840151600490950180549385015160c09095015161ffff1990941695151561ff00191695909517610100941515949094029390931762ff0000191662010000921515929092029190911790925590547fc4ed27c76c59554d198e3b9905ce939b060856f57c3fb58d6497d8fe947326699161097691612016565b3385856040516109899493929190612029565b60405180910390a160028054600091906109a590600190612016565b815481106109b5576109b5611fa1565b906000526020600020906005020190508215610dae576000805b600254811080156109e4575060008360020154115b15610c27576000600282815481106109fe576109fe611fa1565b906000526020600020906005020190508060040160019054906101000a900460ff168015610a315750600481015460ff16155b15610c145760028101546001820154600090610a4d9083611e8d565b905085600201548210610b01578254600184015460028801546001600160a01b03909216916108fc91610a809190611e8d565b6040518115909202916000818181858888f19350505050610ab35760405162461bcd60e51b815260040161059a9061204f565b610ad161038a84600101548860020154611e8d90919063ffffffff16565b9450610aea866002015483611eac90919063ffffffff16565b600060028089019190915584018190559150610c11565b82546040516001600160a01b039091169082156108fc029083906000818181858888f19350505050610b455760405162461bcd60e51b815260040161059a9061204f565b610b4f8582611ea0565b6002870154909550610b619083611eac565b600287015560048301805461ff0019169081905562010000900460ff1615610bcc5782546001840154600485015460405160008051602061217c83398151915293610bbf9389936001600160a01b0390921692909160ff1690612029565b60405180910390a1610c11565b82546001840154600485015460405160008051602061215c83398151915293610c089389936001600160a01b0390921692909160ff1690612029565b60405180910390a15b50505b5080610c1f81611fe0565b9150506109cf565b5081600201548260010154610c3c9190612091565b610c463483611eac565b1015610ca85760405162461bcd60e51b815260206004820152602b60248201527f4e6f7420656e6f75676820657468657220746f20637265617465206e6577206d60448201526a30b935b2ba1037b93232b960a91b606482015260840161059a565b8160020154600003610d115760048201805461ff001916905560025460008051602061215c83398151915290610ce090600190612016565b835460018501546004860154604051610d0894936001600160a01b0316929160ff1690612029565b60405180910390a15b60005460028301546001600160a01b039091169063a9059cbb903390610d38908990611eac565b6040516001600160e01b031960e085901b1681526001600160a01b03909216600483015260248201526044016020604051808303816000875af1158015610d83573d6000803e3d6000fd5b505050506040513d601f19601f82011682018060405250810190610da79190611ff9565b50506111ca565b3415610dcc5760405162461bcd60e51b815260040161059a906120a8565b6000546040516323b872dd60e01b8152336004820152306024820152604481018690526001600160a01b03909116906323b872dd906064016020604051808303816000875af1158015610e23573d6000803e3d6000fd5b505050506040513d601f19601f82011682018060405250810190610e479190611ff9565b5060008060005b60025481108015610e63575060008460020154115b1561112557600060028281548110610e7d57610e7d611fa1565b906000526020600020906005020190508060040160019054906101000a900460ff168015610eaf5750600481015460ff165b156111125760028101546001820154600090610ecb9083611e8d565b905086600201548210610fbe576000548354600289015460405163a9059cbb60e01b81526001600160a01b039283166004820152602481019190915291169063a9059cbb906044016020604051808303816000875af1158015610f32573d6000803e3d6000fd5b505050506040513d601f19601f82011682018060405250810190610f569190611ff9565b50610f7561038a84600101548960020154611e8d90919063ffffffff16565b9450610f8e876002015487611ea090919063ffffffff16565b9550610fa7876002015483611eac90919063ffffffff16565b60006002808a01919091558401819055915061110f565b600054835460405163a9059cbb60e01b81526001600160a01b0391821660048201526024810185905291169063a9059cbb906044016020604051808303816000875af1158015611012573d6000803e3d6000fd5b505050506040513d601f19601f820116820180604052508101906110369190611ff9565b506110418582611ea0565b945061104d8683611ea0565b600288015490965061105f9083611eac565b600288015560048301805461ff0019169081905562010000900460ff16156110ca5782546001840154600485015460405160008051602061217c833981519152936110bd9389936001600160a01b0390921692909160ff1690612029565b60405180910390a161110f565b82546001840154600485015460405160008051602061215c833981519152936111069389936001600160a01b0390921692909160ff1690612029565b60405180910390a15b50505b508061111d81611fe0565b915050610e4e565b50826002015460000361118f5760048301805461ff001916905560025460008051602061215c8339815191529061115e90600190612016565b84546001860154600487015460405161118694936001600160a01b0316929160ff1690612029565b60405180910390a15b604051339082156108fc029083906000818181858888f193505050506111c75760405162461bcd60e51b815260040161059a906120f8565b50505b60019150505b92915050565b600281815481106111e657600080fd5b6000918252602090912060059091020180546001820154600283015460038401546004909401546001600160a01b0390931694509092909160ff808216916101008104821691620100009091041687565b6040805160e081018252600080825260208201819052918101829052606081018290526080810182905260a0810182905260c08101919091526002828154811061128357611283611fa1565b60009182526020918290206040805160e081018252600590930290910180546001600160a01b031683526001810154938301939093526002830154908201526003820154606082015260049091015460ff8082161515608084015261010082048116151560a08401526201000090910416151560c082015292915050565b60008084116113525760405162461bcd60e51b815260206004820181905260248201527f416d6f756e74206d7573742062652067726561746572207468616e207a65726f604482015260640161059a565b81156113a457346113638585611e8d565b11156113a45760405162461bcd60e51b815260206004820152601060248201526f092dce6eaccccd2c6d2cadce8408aa8960831b604482015260640161059a565b6040805160e08101825233815260208101858152918101868152426060830190815285151560808401908152600160a0850181815260c08601828152600280548085018255600082905297517f405787fa12a823e0f2b7631cc41b3ba8828b3321ca811111fa75cd3aa3bb5ace600590990298890180546001600160a01b0319166001600160a01b0390921691909117905597517f405787fa12a823e0f2b7631cc41b3ba8828b3321ca811111fa75cd3aa3bb5acf88015594517f405787fa12a823e0f2b7631cc41b3ba8828b3321ca811111fa75cd3aa3bb5ad087015592517f405787fa12a823e0f2b7631cc41b3ba8828b3321ca811111fa75cd3aa3bb5ad186015590517f405787fa12a823e0f2b7631cc41b3ba8828b3321ca811111fa75cd3aa3bb5ad290940180549251935161ffff1990931694151561ff00191694909417610100931515939093029290921762ff0000191662010000911515919091021790915590547ffca24bfc3cd4113f7a6b176c23f8807a1962fcac3b84f5702860f643b36c6cd99161153791612016565b60408051918252336020830152810186905260608101859052831515608082015260a00160405180910390a1600280546000919061157790600190612016565b8154811061158757611587611fa1565b9060005260206000209060050201905082156119b8576000805b600254811080156115b6575060008360020154115b1561191a576000600282815481106115d0576115d0611fa1565b906000526020600020906005020190508060040160019054906101000a900460ff1680156116035750600481015460ff16155b156119065783600101548160010154111561161e5750611908565b600281015460018201546000906116359083611e8d565b90506000866002015483101561165e57866001015484600201546116599190612091565b611672565b866001015487600201546116729190612091565b905086600201548310611782578354600185015460028901546001600160a01b03909216916108fc916116a59190611e8d565b6040518115909202916000818181858888f193505050506116d85760405162461bcd60e51b815260040161059a9061204f565b6116f661049d85600101548960020154611e8d90919063ffffffff16565b955061170f876002015484611eac90919063ffffffff16565b60006002808a019190915585810182905560048901805461ff00191690555490935060008051602061217c8339815191529061174d90600190612016565b885460018a015460048b015460405161177594936001600160a01b0316929160ff1690612029565b60405180910390a1611885565b83546040516001600160a01b039091169083156108fc029084906000818181858888f193505050506117c65760405162461bcd60e51b815260040161059a9061204f565b6117d08683611ea0565b60028801549096506117e29084611eac565b600288015560048401805461ff0019169081905562010000900460ff16156118405783546001850154600486015460405160008051602061217c83398151915293611775938a936001600160a01b0390921692909160ff1690612029565b83546001850154600486015460405160008051602061215c8339815191529361187c938a936001600160a01b0390921692909160ff1690612029565b60405180910390a15b336108fc6118938484612016565b6040518115909202916000818181858888f193505050506119025760405162461bcd60e51b8152602060048201526024808201527f556e61626c6520746f2072657475726e20657468657220746f20746865207365604482015263373232b960e11b606482015260840161059a565b5050505b505b8061191281611fe0565b9150506115a1565b5060005460028301546001600160a01b039091169063a9059cbb903390611942908a90611eac565b6040516001600160e01b031960e085901b1681526001600160a01b03909216600483015260248201526044016020604051808303816000875af115801561198d573d6000803e3d6000fd5b505050506040513d601f19601f820116820180604052508101906119b19190611ff9565b5050611dd7565b34156119d65760405162461bcd60e51b815260040161059a906120a8565b6000546040516323b872dd60e01b8152336004820152306024820152604481018790526001600160a01b03909116906323b872dd906064016020604051808303816000875af1158015611a2d573d6000803e3d6000fd5b505050506040513d601f19601f82011682018060405250810190611a519190611ff9565b5060008060005b60025481108015611a6d575060008460020154115b15611d9557600060028281548110611a8757611a87611fa1565b906000526020600020906005020190508060040160019054906101000a900460ff168015611ab95750600481015460ff165b15611d8157846001015481600101541015611ad45750611d83565b60028101546001820154600090611aeb9083611e8d565b905086600201548210611c3a576000548354600289015460405163a9059cbb60e01b81526001600160a01b039283166004820152602481019190915291169063a9059cbb906044016020604051808303816000875af1158015611b52573d6000803e3d6000fd5b505050506040513d601f19601f82011682018060405250810190611b769190611ff9565b50611b9561038a84600101548960020154611e8d90919063ffffffff16565b9450611bae876002015487611ea090919063ffffffff16565b9550611bc7876002015483611eac90919063ffffffff16565b60006002808a019190915584810182905560048901805461ff00191690555490925060008051602061217c83398151915290611c0590600190612016565b885460018a015460048b0154604051611c2d94936001600160a01b0316929160ff1690612029565b60405180910390a1611d7e565b600054835460405163a9059cbb60e01b81526001600160a01b0391821660048201526024810185905291169063a9059cbb906044016020604051808303816000875af1158015611c8e573d6000803e3d6000fd5b505050506040513d601f19601f82011682018060405250810190611cb29190611ff9565b50611cbd8582611ea0565b9450611cc98683611ea0565b6002880154909650611cdb9083611eac565b600288015560048301805461ff0019169081905562010000900460ff1615611d395782546001840154600485015460405160008051602061217c83398151915293611c2d9389936001600160a01b0390921692909160ff1690612029565b82546001840154600485015460405160008051602061215c83398151915293611d759389936001600160a01b0390921692909160ff1690612029565b60405180910390a15b50505b505b80611d8d81611fe0565b915050611a58565b508015611dd457604051339082156108fc029083906000818181858888f19350505050611dd45760405162461bcd60e51b815260040161059a906120f8565b50505b506001949350505050565b6000600180825b600254811015611e7b5760028181548110611e0657611e06611fa1565b906000526020600020906005020160040160019054906101000a900460ff16611e695760028181548110611e3c57611e3c611fa1565b90600052602060002090600502016001015483611e599190611fcd565b925081611e6581611fe0565b9250505b80611e7381611fe0565b915050611de9565b50611e868282611eb8565b9250505090565b6000611e998284612091565b9392505050565b6000611e998284611fcd565b6000611e998284612016565b6000611e998284612139565b8015158114611ed257600080fd5b50565b60008060008060808587031215611eeb57600080fd5b84359350602085013592506040850135611f0481611ec4565b91506060850135611f1481611ec4565b939692955090935050565b600060208284031215611f3157600080fd5b5035919050565b60008060408385031215611f4b57600080fd5b823591506020830135611f5d81611ec4565b809150509250929050565b600080600060608486031215611f7d57600080fd5b83359250602084013591506040840135611f9681611ec4565b809150509250925092565b634e487b7160e01b600052603260045260246000fd5b634e487b7160e01b600052601160045260246000fd5b808201808211156111d0576111d0611fb7565b600060018201611ff257611ff2611fb7565b5060010190565b60006020828403121561200b57600080fd5b8151611e9981611ec4565b818103818111156111d0576111d0611fb7565b9384526001600160a01b0392909216602084015260408301521515606082015260800190565b60208082526022908201527f556e61626c6520746f2073656e6420657468657220746f20746865207472616460408201526132b960f11b606082015260800190565b80820281158282048414176111d0576111d0611fb7565b60208082526030908201527f596f752063616e6e6f742073656e6420657468657220696620796f752077616e60408201526f7420746f2073656c6c20746f6b656e7360801b606082015260800190565b60208082526021908201527f556e61626c6520746f2070617920657468657220746f207468652073656c6c656040820152603960f91b606082015260800190565b60008261215657634e487b7160e01b600052601260045260246000fd5b50049056feed917941cff2fd87de71e24662c33c065e4f9d44f8afbb9612e64dce6f116fdefb2805a13ee23558892fad0f4b839c70f0a1007a0068d6c7e917b2bf2efd1a30a26469706673582212200da0b2a4a9afbb01a0a10dfbfea6a47c4c2a0d47fe1f384fc5b0a0619e78320064736f6c63430008110033",
  "linkReferences": {},
  "deployedLinkReferences": {}
}