{
  "_format": "hh-sol-artifact-1",
  "contractName": "CoinomiconFactory",
  "sourceName": "contracts/CoinomiconFactory.sol",
  "abi": [
    {
      "anonymous": false,
      "inputs": [
        {
          "indexed": true,
          "internalType": "address",
          "name": "_exchange",
          "type": "address"
        },
        {
          "indexed": true,
          "internalType": "address",
          "name": "_token",
          "type": "address"
        }
      ],
      "name": "ExchangeCreated",
      "type": "event"
    },
    {
      "anonymous": false,
      "inputs": [
        {
          "indexed": true,
          "internalType": "address",
          "name": "previousOwner",
          "type": "address"
        },
        {
          "indexed": true,
          "internalType": "address",
          "name": "newOwner",
          "type": "address"
        }
      ],
      "name": "OwnershipTransferred",
      "type": "event"
    },
    {
      "inputs": [],
      "name": "_getExchangeImplementation",
      "outputs": [
        {
          "internalType": "address",
          "name": "",
          "type": "address"
        }
      ],
      "stateMutability": "view",
      "type": "function"
    },
    {
      "inputs": [
        {
          "internalType": "address",
          "name": "implementation",
          "type": "address"
        }
      ],
      "name": "_setExchangeImplementation",
      "outputs": [],
      "stateMutability": "nonpayable",
      "type": "function"
    },
    {
      "inputs": [
        {
          "internalType": "address",
          "name": "_token",
          "type": "address"
        },
        {
          "internalType": "uint256",
          "name": "startingPrice",
          "type": "uint256"
        }
      ],
      "name": "createExchange",
      "outputs": [
        {
          "internalType": "address",
          "name": "",
          "type": "address"
        }
      ],
      "stateMutability": "nonpayable",
      "type": "function"
    },
    {
      "inputs": [
        {
          "internalType": "address",
          "name": "_tokenAddress",
          "type": "address"
        }
      ],
      "name": "getExchange",
      "outputs": [
        {
          "internalType": "address",
          "name": "",
          "type": "address"
        }
      ],
      "stateMutability": "view",
      "type": "function"
    },
    {
      "inputs": [],
      "name": "owner",
      "outputs": [
        {
          "internalType": "address",
          "name": "",
          "type": "address"
        }
      ],
      "stateMutability": "view",
      "type": "function"
    },
    {
      "inputs": [],
      "name": "renounceOwnership",
      "outputs": [],
      "stateMutability": "nonpayable",
      "type": "function"
    },
    {
      "inputs": [
        {
          "internalType": "address",
          "name": "newOwner",
          "type": "address"
        }
      ],
      "name": "transferOwnership",
      "outputs": [],
      "stateMutability": "nonpayable",
      "type": "function"
    }
  ],
  "bytecode": "0x608060405234801561001057600080fd5b5061001a3361001f565b61006f565b600080546001600160a01b038381166001600160a01b0319831681178455604051919092169283917f8be0079c531659141344cd1fd0a4f28419497f9722a3daafe3b4186f6b6457e09190a35050565b6109328061007e6000396000f3fe608060405234801561001057600080fd5b506004361061007d5760003560e01c8063715018a61161005b578063715018a6146100ee578063741b2715146100f85780638da5cb5b1461010b578063f2fde38b1461011c57600080fd5b806306f2bf6214610082578063433c817c146100ca578063532345a5146100dd575b600080fd5b6100ae6100903660046104c8565b6001600160a01b039081166000908152600160205260409020541690565b6040516001600160a01b03909116815260200160405180910390f35b6100ae6100d83660046104ea565b61012f565b6002546001600160a01b03166100ae565b6100f66102ef565b005b6100f66101063660046104c8565b610303565b6000546001600160a01b03166100ae565b6100f661012a3660046104c8565b61037c565b6000806101446002546001600160a01b031690565b6001600160a01b0316036101985760405162461bcd60e51b815260206004820152601660248201527524b73b30b634b21034b6b83632b6b2b73a30ba34b7b760511b60448201526064015b60405180910390fd5b6001600160a01b0383166101e65760405162461bcd60e51b8152602060048201526015602482015274496e76616c696420746f6b656e206164647265737360581b604482015260640161018f565b6001600160a01b03838116600090815260016020526040902054161561024e5760405162461bcd60e51b815260206004820152601760248201527f45786368616e676520616c726561647920657869737473000000000000000000604482015260640161018f565b6000838360405161025e9061049f565b6001600160a01b0390921682526020820152604001604051809103906000f08015801561028f573d6000803e3d6000fd5b506001600160a01b0385811660008181526001602052604080822080546001600160a01b03191694861694851790555193945090927f2c4532633e8c7bd3e122b4acb022f8b719c809c0722baa1996befc9a26ad6e6c9190a39392505050565b6102f76103f5565b610301600061044f565b565b61030b6103f5565b6001600160a01b03811661035a5760405162461bcd60e51b815260206004820152601660248201527524b73b30b634b21034b6b83632b6b2b73a30ba34b7b760511b604482015260640161018f565b600280546001600160a01b0319166001600160a01b0392909216919091179055565b6103846103f5565b6001600160a01b0381166103e95760405162461bcd60e51b815260206004820152602660248201527f4f776e61626c653a206e6577206f776e657220697320746865207a65726f206160448201526564647265737360d01b606482015260840161018f565b6103f28161044f565b50565b6000546001600160a01b031633146103015760405162461bcd60e51b815260206004820181905260248201527f4f776e61626c653a2063616c6c6572206973206e6f7420746865206f776e6572604482015260640161018f565b600080546001600160a01b038381166001600160a01b0319831681178455604051919092169283917f8be0079c531659141344cd1fd0a4f28419497f9722a3daafe3b4186f6b6457e09190a35050565b6103e88061051583390190565b80356001600160a01b03811681146104c357600080fd5b919050565b6000602082840312156104da57600080fd5b6104e3826104ac565b9392505050565b600080604083850312156104fd57600080fd5b610506836104ac565b94602093909301359350505056fe608060405234801561001057600080fd5b506040516103e83803806103e883398101604081905261002f91610130565b6001600160a01b03821661008a5760405162461bcd60e51b815260206004820152601560248201527f496e76616c696420746f6b656e2061646472657373000000000000000000000060448201526064015b60405180910390fd5b333b6100fe5760405162461bcd60e51b815260206004820152603560248201527f436f6e747261637420636f756c64206265206465706c6f796564206f6e6c792060448201527f66726f6d20666163746f727920636f6e747261637400000000000000000000006064820152608401610081565b600080546001600160a01b039093166001600160a01b031993841617905560018054909216331790915560035561016a565b6000806040838503121561014357600080fd5b82516001600160a01b038116811461015a57600080fd5b6020939093015192949293505050565b61026f806101796000396000f3fe60806040526004361061002d5760003560e01c8063a20b6e3414610044578063fc0c546a146100ae5761003c565b3661003c5761003a6100e6565b005b61003a6100e6565b34801561005057600080fd5b5061006461005f3660046101f0565b6100f8565b604080516001600160a01b039098168852602088019690965294860193909352606085019190915215156080840152151560a0830152151560c082015260e0015b60405180910390f35b3480156100ba57600080fd5b506000546100ce906001600160a01b031681565b6040516001600160a01b0390911681526020016100a5565b6100f66100f1610159565b6101cc565b565b6002818154811061010857600080fd5b6000918252602090912060059091020180546001820154600283015460038401546004909401546001600160a01b0390931694509092909160ff808216916101008104821691620100009091041687565b6001546040805163532345a560e01b815290516000926001600160a01b03169163532345a59160048083019260209291908290030181865afa1580156101a3573d6000803e3d6000fd5b505050506040513d601f19601f820116820180604052508101906101c79190610209565b905090565b3660008037600080366000845af43d6000803e8080156101eb573d6000f35b3d6000fd5b60006020828403121561020257600080fd5b5035919050565b60006020828403121561021b57600080fd5b81516001600160a01b038116811461023257600080fd5b939250505056fea2646970667358221220b1a2e46f746a48306293c4135e1681c09c4eec5e00f00ff2638c03a2537b50ac64736f6c63430008110033a264697066735822122019a464d6dcdbf0054ad25a08d420d7adebb25a8bdddc10435f6138fa4f674a4864736f6c63430008110033",
  "linkReferences": {},
  "deployedLinkReferences": {}
}